{
  "_format": "hh-sol-artifact-1",
  "contractName": "EXWIFEPresale",
  "sourceName": "contracts/EXWIFEPresale.sol",
  "abi": [
    {
      "inputs": [
        {
          "internalType": "contract IMintable",
          "name": "_token",
          "type": "address"
        },
        {
          "internalType": "address payable",
          "name": "_treasury",
          "type": "address"
        },
        {
          "internalType": "uint256",
          "name": "_priceWeiPerToken",
          "type": "uint256"
        },
        {
          "internalType": "uint256",
          "name": "_minBuyWei",
          "type": "uint256"
        },
        {
          "internalType": "uint64",
          "name": "_openingTime",
          "type": "uint64"
        },
        {
          "internalType": "uint64",
          "name": "_closingTime",
          "type": "uint64"
        },
        {
          "internalType": "address",
          "name": "initialOwner",
          "type": "address"
        }
      ],
      "stateMutability": "nonpayable",
      "type": "constructor"
    },
    {
      "inputs": [
        {
          "internalType": "address",
          "name": "owner",
          "type": "address"
        }
      ],
      "name": "OwnableInvalidOwner",
      "type": "error"
    },
    {
      "inputs": [
        {
          "internalType": "address",
          "name": "account",
          "type": "address"
        }
      ],
      "name": "OwnableUnauthorizedAccount",
      "type": "error"
    },
    {
      "anonymous": false,
      "inputs": [
        {
          "indexed": false,
          "internalType": "uint256",
          "name": "raised",
          "type": "uint256"
        },
        {
          "indexed": false,
          "internalType": "uint256",
          "name": "sold",
          "type": "uint256"
        }
      ],
      "name": "Finalized",
      "type": "event"
    },
    {
      "anonymous": false,
      "inputs": [
        {
          "indexed": true,
          "internalType": "address",
          "name": "previousOwner",
          "type": "address"
        },
        {
          "indexed": true,
          "internalType": "address",
          "name": "newOwner",
          "type": "address"
        }
      ],
      "name": "OwnershipTransferred",
      "type": "event"
    },
    {
      "anonymous": false,
      "inputs": [
        {
          "indexed": false,
          "internalType": "bool",
          "name": "paused",
          "type": "bool"
        }
      ],
      "name": "Paused",
      "type": "event"
    },
    {
      "anonymous": false,
      "inputs": [
        {
          "indexed": true,
          "internalType": "address",
          "name": "buyer",
          "type": "address"
        },
        {
          "indexed": false,
          "internalType": "uint256",
          "name": "value",
          "type": "uint256"
        },
        {
          "indexed": false,
          "internalType": "uint256",
          "name": "amount",
          "type": "uint256"
        }
      ],
      "name": "TokensPurchased",
      "type": "event"
    },
    {
      "inputs": [
        {
          "internalType": "address",
          "name": "to",
          "type": "address"
        },
        {
          "internalType": "uint256",
          "name": "tokens",
          "type": "uint256"
        }
      ],
      "name": "airdrop",
      "outputs": [],
      "stateMutability": "nonpayable",
      "type": "function"
    },
    {
      "inputs": [],
      "name": "buy",
      "outputs": [],
      "stateMutability": "payable",
      "type": "function"
    },
    {
      "inputs": [],
      "name": "closingTime",
      "outputs": [
        {
          "internalType": "uint64",
          "name": "",
          "type": "uint64"
        }
      ],
      "stateMutability": "view",
      "type": "function"
    },
    {
      "inputs": [
        {
          "internalType": "bool",
          "name": "sendEthToTreasury",
          "type": "bool"
        }
      ],
      "name": "finalize",
      "outputs": [],
      "stateMutability": "nonpayable",
      "type": "function"
    },
    {
      "inputs": [],
      "name": "finalized",
      "outputs": [
        {
          "internalType": "bool",
          "name": "",
          "type": "bool"
        }
      ],
      "stateMutability": "view",
      "type": "function"
    },
    {
      "inputs": [],
      "name": "minBuyWei",
      "outputs": [
        {
          "internalType": "uint256",
          "name": "",
          "type": "uint256"
        }
      ],
      "stateMutability": "view",
      "type": "function"
    },
    {
      "inputs": [],
      "name": "openingTime",
      "outputs": [
        {
          "internalType": "uint64",
          "name": "",
          "type": "uint64"
        }
      ],
      "stateMutability": "view",
      "type": "function"
    },
    {
      "inputs": [],
      "name": "owner",
      "outputs": [
        {
          "internalType": "address",
          "name": "",
          "type": "address"
        }
      ],
      "stateMutability": "view",
      "type": "function"
    },
    {
      "inputs": [],
      "name": "paused",
      "outputs": [
        {
          "internalType": "bool",
          "name": "",
          "type": "bool"
        }
      ],
      "stateMutability": "view",
      "type": "function"
    },
    {
      "inputs": [],
      "name": "priceWeiPerToken",
      "outputs": [
        {
          "internalType": "uint256",
          "name": "",
          "type": "uint256"
        }
      ],
      "stateMutability": "view",
      "type": "function"
    },
    {
      "inputs": [],
      "name": "renounceOwnership",
      "outputs": [],
      "stateMutability": "nonpayable",
      "type": "function"
    },
    {
      "inputs": [
        {
          "internalType": "bool",
          "name": "_paused",
          "type": "bool"
        }
      ],
      "name": "setPaused",
      "outputs": [],
      "stateMutability": "nonpayable",
      "type": "function"
    },
    {
      "inputs": [],
      "name": "token",
      "outputs": [
        {
          "internalType": "contract IMintable",
          "name": "",
          "type": "address"
        }
      ],
      "stateMutability": "view",
      "type": "function"
    },
    {
      "inputs": [],
      "name": "totalRaisedWei",
      "outputs": [
        {
          "internalType": "uint256",
          "name": "",
          "type": "uint256"
        }
      ],
      "stateMutability": "view",
      "type": "function"
    },
    {
      "inputs": [],
      "name": "totalSoldTokens",
      "outputs": [
        {
          "internalType": "uint256",
          "name": "",
          "type": "uint256"
        }
      ],
      "stateMutability": "view",
      "type": "function"
    },
    {
      "inputs": [
        {
          "internalType": "address",
          "name": "newOwner",
          "type": "address"
        }
      ],
      "name": "transferOwnership",
      "outputs": [],
      "stateMutability": "nonpayable",
      "type": "function"
    },
    {
      "inputs": [],
      "name": "treasury",
      "outputs": [
        {
          "internalType": "address payable",
          "name": "",
          "type": "address"
        }
      ],
      "stateMutability": "view",
      "type": "function"
    },
    {
      "stateMutability": "payable",
      "type": "receive"
    }
  ],
  "bytecode": "0x6101006040523480156200001257600080fd5b506040516200200738038062002007833981810160405281019062000038919062000528565b80600073ffffffffffffffffffffffffffffffffffffffff168173ffffffffffffffffffffffffffffffffffffffff1603620000ae5760006040517f1e4fbdf7000000000000000000000000000000000000000000000000000000008152600401620000a59190620005ec565b60405180910390fd5b620000bf81620002f060201b60201c565b50600073ffffffffffffffffffffffffffffffffffffffff168773ffffffffffffffffffffffffffffffffffffffff16141580156200012b5750600073ffffffffffffffffffffffffffffffffffffffff168673ffffffffffffffffffffffffffffffffffffffff1614155b6200016d576040517f08c379a000000000000000000000000000000000000000000000000000000000815260040162000164906200066a565b60405180910390fd5b8167ffffffffffffffff168367ffffffffffffffff1610620001c6576040517f08c379a0000000000000000000000000000000000000000000000000000000008152600401620001bd90620006dc565b60405180910390fd5b600085118015620001d75750600084115b62000219576040517f08c379a000000000000000000000000000000000000000000000000000000000815260040162000210906200074e565b60405180910390fd5b8673ffffffffffffffffffffffffffffffffffffffff1660808173ffffffffffffffffffffffffffffffffffffffff16815250508573ffffffffffffffffffffffffffffffffffffffff1660a08173ffffffffffffffffffffffffffffffffffffffff16815250508460c081815250508360e0818152505082600060146101000a81548167ffffffffffffffff021916908367ffffffffffffffff16021790555081600160006101000a81548167ffffffffffffffff021916908367ffffffffffffffff1602179055505050505050505062000770565b60008060009054906101000a900473ffffffffffffffffffffffffffffffffffffffff169050816000806101000a81548173ffffffffffffffffffffffffffffffffffffffff021916908373ffffffffffffffffffffffffffffffffffffffff1602179055508173ffffffffffffffffffffffffffffffffffffffff168173ffffffffffffffffffffffffffffffffffffffff167f8be0079c531659141344cd1fd0a4f28419497f9722a3daafe3b4186f6b6457e060405160405180910390a35050565b600080fd5b600073ffffffffffffffffffffffffffffffffffffffff82169050919050565b6000620003e682620003b9565b9050919050565b6000620003fa82620003d9565b9050919050565b6200040c81620003ed565b81146200041857600080fd5b50565b6000815190506200042c8162000401565b92915050565b60006200043f82620003b9565b9050919050565b620004518162000432565b81146200045d57600080fd5b50565b600081519050620004718162000446565b92915050565b6000819050919050565b6200048c8162000477565b81146200049857600080fd5b50565b600081519050620004ac8162000481565b92915050565b600067ffffffffffffffff82169050919050565b620004d181620004b2565b8114620004dd57600080fd5b50565b600081519050620004f181620004c6565b92915050565b6200050281620003d9565b81146200050e57600080fd5b50565b6000815190506200052281620004f7565b92915050565b600080600080600080600060e0888a0312156200054a5762000549620003b4565b5b60006200055a8a828b016200041b565b97505060206200056d8a828b0162000460565b9650506040620005808a828b016200049b565b9550506060620005938a828b016200049b565b9450506080620005a68a828b01620004e0565b93505060a0620005b98a828b01620004e0565b92505060c0620005cc8a828b0162000511565b91505092959891949750929550565b620005e681620003d9565b82525050565b6000602082019050620006036000830184620005db565b92915050565b600082825260208201905092915050565b7f6261642061646472000000000000000000000000000000000000000000000000600082015250565b60006200065260088362000609565b91506200065f826200061a565b602082019050919050565b60006020820190508181036000830152620006858162000643565b9050919050565b7f74696d6573000000000000000000000000000000000000000000000000000000600082015250565b6000620006c460058362000609565b9150620006d1826200068c565b602082019050919050565b60006020820190508181036000830152620006f781620006b5565b9050919050565b7f706172616d730000000000000000000000000000000000000000000000000000600082015250565b60006200073660068362000609565b91506200074382620006fe565b602082019050919050565b60006020820190508181036000830152620007698162000727565b9050919050565b60805160a05160c05160e051611833620007d4600039600081816104e5015261077201526000818161054a0152610ba301526000818161081f01526108bd01526000818161056b0152818161066001528181610ab60152610c4d01526118336000f3fe6080604052600436106101025760003560e01c80638ba4cc3c11610095578063b7a8807c11610064578063b7a8807c146102df578063d7ca99491461030a578063dbf09d6614610335578063f2fde38b14610360578063fc0c546a1461038957610111565b80638ba4cc3c146102565780638da5cb5b1461027f578063a6f2ae3a146102aa578063b3f05b97146102b457610111565b806361d027b3116100d157806361d027b3146101c05780636c9789b0146101eb5780636dfdb91214610214578063715018a61461023f57610111565b806301e6f5211461011657806316c38b3c146101415780634b6753bc1461016a5780635c975abb1461019557610111565b366101115761010f6103b4565b005b600080fd5b34801561012257600080fd5b5061012b610770565b6040516101389190610ddb565b60405180910390f35b34801561014d57600080fd5b5061016860048036038101906101639190610e33565b610794565b005b34801561017657600080fd5b5061017f6107f0565b60405161018c9190610e83565b60405180910390f35b3480156101a157600080fd5b506101aa61080a565b6040516101b79190610ead565b60405180910390f35b3480156101cc57600080fd5b506101d561081d565b6040516101e29190610f09565b60405180910390f35b3480156101f757600080fd5b50610212600480360381019061020d9190610e33565b610841565b005b34801561022057600080fd5b506102296109c7565b6040516102369190610ddb565b60405180910390f35b34801561024b57600080fd5b506102546109cd565b005b34801561026257600080fd5b5061027d60048036038101906102789190610f8e565b6109e1565b005b34801561028b57600080fd5b50610294610b45565b6040516102a19190610fdd565b60405180910390f35b6102b26103b4565b005b3480156102c057600080fd5b506102c9610b6e565b6040516102d69190610ead565b60405180910390f35b3480156102eb57600080fd5b506102f4610b81565b6040516103019190610e83565b60405180910390f35b34801561031657600080fd5b5061031f610b9b565b60405161032c9190610ddb565b60405180910390f35b34801561034157600080fd5b5061034a610ba1565b6040516103579190610ddb565b60405180910390f35b34801561036c57600080fd5b5061038760048036038101906103829190610ff8565b610bc5565b005b34801561039557600080fd5b5061039e610c4b565b6040516103ab9190611084565b60405180910390f35b600060149054906101000a900467ffffffffffffffff1667ffffffffffffffff1642101580156104045750600160009054906101000a900467ffffffffffffffff1667ffffffffffffffff164211155b610443576040517f08c379a000000000000000000000000000000000000000000000000000000000815260040161043a906110fc565b60405180910390fd5b600160099054906101000a900460ff1615610493576040517f08c379a000000000000000000000000000000000000000000000000000000000815260040161048a90611168565b60405180910390fd5b600160089054906101000a900460ff16156104e3576040517f08c379a00000000000000000000000000000000000000000000000000000000081526004016104da906111d4565b60405180910390fd5b7f0000000000000000000000000000000000000000000000000000000000000000341015610546576040517f08c379a000000000000000000000000000000000000000000000000000000000815260040161053d90611240565b60405180910390fd5b60007f00000000000000000000000000000000000000000000000000000000000000007f000000000000000000000000000000000000000000000000000000000000000073ffffffffffffffffffffffffffffffffffffffff1663313ce5676040518163ffffffff1660e01b8152600401602060405180830381865afa1580156105d4573d6000803e3d6000fd5b505050506040513d601f19601f820116820180604052508101906105f89190611299565b600a6106049190611428565b3461060f9190611473565b61061991906114e4565b90506000811161065e576040517f08c379a000000000000000000000000000000000000000000000000000000000815260040161065590611561565b60405180910390fd5b7f000000000000000000000000000000000000000000000000000000000000000073ffffffffffffffffffffffffffffffffffffffff166340c10f1933836040518363ffffffff1660e01b81526004016106b9929190611581565b600060405180830381600087803b1580156106d357600080fd5b505af11580156106e7573d6000803e3d6000fd5b5050505034600260008282546106fd91906115aa565b92505081905550806003600082825461071691906115aa565b925050819055503373ffffffffffffffffffffffffffffffffffffffff167f8fafebcaf9d154343dad25669bfa277f4fbacd7ac6b0c4fed522580e040a0f3334836040516107659291906115de565b60405180910390a250565b7f000000000000000000000000000000000000000000000000000000000000000081565b61079c610c6f565b80600160096101000a81548160ff0219169083151502179055507f0e2fb031ee032dc02d8011dc50b816eb450cf856abd8261680dac74f72165bd2816040516107e59190610ead565b60405180910390a150565b600160009054906101000a900467ffffffffffffffff1681565b600160099054906101000a900460ff1681565b7f000000000000000000000000000000000000000000000000000000000000000081565b610849610c6f565b600160089054906101000a900460ff1615610899576040517f08c379a000000000000000000000000000000000000000000000000000000000815260040161089090611653565b60405180910390fd5b60018060086101000a81548160ff02191690831515021790555080156109875760007f000000000000000000000000000000000000000000000000000000000000000073ffffffffffffffffffffffffffffffffffffffff16476040516108ff906116a4565b60006040518083038185875af1925050503d806000811461093c576040519150601f19603f3d011682016040523d82523d6000602084013e610941565b606091505b5050905080610985576040517f08c379a000000000000000000000000000000000000000000000000000000000815260040161097c90611705565b60405180910390fd5b505b7fb968440accd1ce5fa60b00de8bb8d8487eb2fda3c3701fb30fea3f69aa910a486002546003546040516109bc9291906115de565b60405180910390a150565b60025481565b6109d5610c6f565b6109df6000610cf6565b565b6109e9610c6f565b600160089054906101000a900460ff16610a38576040517f08c379a0000000000000000000000000000000000000000000000000000000008152600401610a2f90611771565b60405180910390fd5b600073ffffffffffffffffffffffffffffffffffffffff168273ffffffffffffffffffffffffffffffffffffffff1614158015610a755750600081115b610ab4576040517f08c379a0000000000000000000000000000000000000000000000000000000008152600401610aab906117dd565b60405180910390fd5b7f000000000000000000000000000000000000000000000000000000000000000073ffffffffffffffffffffffffffffffffffffffff166340c10f1983836040518363ffffffff1660e01b8152600401610b0f929190611581565b600060405180830381600087803b158015610b2957600080fd5b505af1158015610b3d573d6000803e3d6000fd5b505050505050565b60008060009054906101000a900473ffffffffffffffffffffffffffffffffffffffff16905090565b600160089054906101000a900460ff1681565b600060149054906101000a900467ffffffffffffffff1681565b60035481565b7f000000000000000000000000000000000000000000000000000000000000000081565b610bcd610c6f565b600073ffffffffffffffffffffffffffffffffffffffff168173ffffffffffffffffffffffffffffffffffffffff1603610c3f5760006040517f1e4fbdf7000000000000000000000000000000000000000000000000000000008152600401610c369190610fdd565b60405180910390fd5b610c4881610cf6565b50565b7f000000000000000000000000000000000000000000000000000000000000000081565b610c77610dba565b73ffffffffffffffffffffffffffffffffffffffff16610c95610b45565b73ffffffffffffffffffffffffffffffffffffffff1614610cf457610cb8610dba565b6040517f118cdaa7000000000000000000000000000000000000000000000000000000008152600401610ceb9190610fdd565b60405180910390fd5b565b60008060009054906101000a900473ffffffffffffffffffffffffffffffffffffffff169050816000806101000a81548173ffffffffffffffffffffffffffffffffffffffff021916908373ffffffffffffffffffffffffffffffffffffffff1602179055508173ffffffffffffffffffffffffffffffffffffffff168173ffffffffffffffffffffffffffffffffffffffff167f8be0079c531659141344cd1fd0a4f28419497f9722a3daafe3b4186f6b6457e060405160405180910390a35050565b600033905090565b6000819050919050565b610dd581610dc2565b82525050565b6000602082019050610df06000830184610dcc565b92915050565b600080fd5b60008115159050919050565b610e1081610dfb565b8114610e1b57600080fd5b50565b600081359050610e2d81610e07565b92915050565b600060208284031215610e4957610e48610df6565b5b6000610e5784828501610e1e565b91505092915050565b600067ffffffffffffffff82169050919050565b610e7d81610e60565b82525050565b6000602082019050610e986000830184610e74565b92915050565b610ea781610dfb565b82525050565b6000602082019050610ec26000830184610e9e565b92915050565b600073ffffffffffffffffffffffffffffffffffffffff82169050919050565b6000610ef382610ec8565b9050919050565b610f0381610ee8565b82525050565b6000602082019050610f1e6000830184610efa565b92915050565b6000610f2f82610ec8565b9050919050565b610f3f81610f24565b8114610f4a57600080fd5b50565b600081359050610f5c81610f36565b92915050565b610f6b81610dc2565b8114610f7657600080fd5b50565b600081359050610f8881610f62565b92915050565b60008060408385031215610fa557610fa4610df6565b5b6000610fb385828601610f4d565b9250506020610fc485828601610f79565b9150509250929050565b610fd781610f24565b82525050565b6000602082019050610ff26000830184610fce565b92915050565b60006020828403121561100e5761100d610df6565b5b600061101c84828501610f4d565b91505092915050565b6000819050919050565b600061104a61104561104084610ec8565b611025565b610ec8565b9050919050565b600061105c8261102f565b9050919050565b600061106e82611051565b9050919050565b61107e81611063565b82525050565b60006020820190506110996000830184611075565b92915050565b600082825260208201905092915050565b7f6e6f74206f70656e000000000000000000000000000000000000000000000000600082015250565b60006110e660088361109f565b91506110f1826110b0565b602082019050919050565b60006020820190508181036000830152611115816110d9565b9050919050565b7f7061757365640000000000000000000000000000000000000000000000000000600082015250565b600061115260068361109f565b915061115d8261111c565b602082019050919050565b6000602082019050818103600083015261118181611145565b9050919050565b7f66696e616c697a65640000000000000000000000000000000000000000000000600082015250565b60006111be60098361109f565b91506111c982611188565b602082019050919050565b600060208201905081810360008301526111ed816111b1565b9050919050565b7f6d696e0000000000000000000000000000000000000000000000000000000000600082015250565b600061122a60038361109f565b9150611235826111f4565b602082019050919050565b600060208201905081810360008301526112598161121d565b9050919050565b600060ff82169050919050565b61127681611260565b811461128157600080fd5b50565b6000815190506112938161126d565b92915050565b6000602082840312156112af576112ae610df6565b5b60006112bd84828501611284565b91505092915050565b7f4e487b7100000000000000000000000000000000000000000000000000000000600052601160045260246000fd5b60008160011c9050919050565b6000808291508390505b600185111561134c57808604811115611328576113276112c6565b5b60018516156113375780820291505b8081029050611345856112f5565b945061130c565b94509492505050565b6000826113655760019050611421565b816113735760009050611421565b81600181146113895760028114611393576113c2565b6001915050611421565b60ff8411156113a5576113a46112c6565b5b8360020a9150848211156113bc576113bb6112c6565b5b50611421565b5060208310610133831016604e8410600b84101617156113f75782820a9050838111156113f2576113f16112c6565b5b611421565b6114048484846001611302565b9250905081840481111561141b5761141a6112c6565b5b81810290505b9392505050565b600061143382610dc2565b915061143e83611260565b925061146b7fffffffffffffffffffffffffffffffffffffffffffffffffffffffffffffffff8484611355565b905092915050565b600061147e82610dc2565b915061148983610dc2565b925082820261149781610dc2565b915082820484148315176114ae576114ad6112c6565b5b5092915050565b7f4e487b7100000000000000000000000000000000000000000000000000000000600052601260045260246000fd5b60006114ef82610dc2565b91506114fa83610dc2565b92508261150a576115096114b5565b5b828204905092915050565b7f74696e7900000000000000000000000000000000000000000000000000000000600082015250565b600061154b60048361109f565b915061155682611515565b602082019050919050565b6000602082019050818103600083015261157a8161153e565b9050919050565b60006040820190506115966000830185610fce565b6115a36020830184610dcc565b9392505050565b60006115b582610dc2565b91506115c083610dc2565b92508282019050808211156115d8576115d76112c6565b5b92915050565b60006040820190506115f36000830185610dcc565b6116006020830184610dcc565b9392505050565b7f646f6e6500000000000000000000000000000000000000000000000000000000600082015250565b600061163d60048361109f565b915061164882611607565b602082019050919050565b6000602082019050818103600083015261166c81611630565b9050919050565b600081905092915050565b50565b600061168e600083611673565b91506116998261167e565b600082019050919050565b60006116af82611681565b9150819050919050565b7f7866657200000000000000000000000000000000000000000000000000000000600082015250565b60006116ef60048361109f565b91506116fa826116b9565b602082019050919050565b6000602082019050818103600083015261171e816116e2565b9050919050565b7f66696e616c697a65206669727374000000000000000000000000000000000000600082015250565b600061175b600e8361109f565b915061176682611725565b602082019050919050565b6000602082019050818103600083015261178a8161174e565b9050919050565b7f6261640000000000000000000000000000000000000000000000000000000000600082015250565b60006117c760038361109f565b91506117d282611791565b602082019050919050565b600060208201905081810360008301526117f6816117ba565b905091905056fea26469706673582212204230e1ad4b5d5d10831aae114764b0ee477f5f5aa4da0d64e6953432e922e76564736f6c63430008180033",
  "linkReferences": {},
  "deployedLinkReferences": {}
}