{
  "_format": "hh-sol-artifact-1",
  "contractName": "ExwifePresaleV2",
  "sourceName": "contracts/ExwifePresaleV2.sol",
  "abi": [
    {
      "inputs": [
        {
          "internalType": "address",
          "name": "_token",
          "type": "address"
        },
        {
          "internalType": "address",
          "name": "_wallet",
          "type": "address"
        },
        {
          "internalType": "uint256",
          "name": "_rate",
          "type": "uint256"
        },
        {
          "internalType": "uint256",
          "name": "_openAt",
          "type": "uint256"
        },
        {
          "internalType": "uint256",
          "name": "_closeAt",
          "type": "uint256"
        },
        {
          "internalType": "uint256",
          "name": "_capWei",
          "type": "uint256"
        },
        {
          "internalType": "uint256",
          "name": "_goalWei",
          "type": "uint256"
        }
      ],
      "stateMutability": "nonpayable",
      "type": "constructor"
    },
    {
      "anonymous": false,
      "inputs": [
        {
          "indexed": true,
          "internalType": "address",
          "name": "account",
          "type": "address"
        }
      ],
      "name": "Paused",
      "type": "event"
    },
    {
      "anonymous": false,
      "inputs": [
        {
          "indexed": true,
          "internalType": "address",
          "name": "to",
          "type": "address"
        },
        {
          "indexed": false,
          "internalType": "uint256",
          "name": "tokenAmount",
          "type": "uint256"
        }
      ],
      "name": "Skimmed",
      "type": "event"
    },
    {
      "anonymous": false,
      "inputs": [
        {
          "indexed": true,
          "internalType": "address",
          "name": "buyer",
          "type": "address"
        },
        {
          "indexed": false,
          "internalType": "uint256",
          "name": "valueWei",
          "type": "uint256"
        },
        {
          "indexed": false,
          "internalType": "uint256",
          "name": "amountTokens",
          "type": "uint256"
        }
      ],
      "name": "TokensPurchased",
      "type": "event"
    },
    {
      "anonymous": false,
      "inputs": [
        {
          "indexed": true,
          "internalType": "address",
          "name": "account",
          "type": "address"
        }
      ],
      "name": "Unpaused",
      "type": "event"
    },
    {
      "anonymous": false,
      "inputs": [
        {
          "indexed": true,
          "internalType": "address",
          "name": "to",
          "type": "address"
        },
        {
          "indexed": false,
          "internalType": "uint256",
          "name": "valueWei",
          "type": "uint256"
        }
      ],
      "name": "Withdrawn",
      "type": "event"
    },
    {
      "inputs": [],
      "name": "buy",
      "outputs": [],
      "stateMutability": "payable",
      "type": "function"
    },
    {
      "inputs": [],
      "name": "capWei",
      "outputs": [
        {
          "internalType": "uint256",
          "name": "",
          "type": "uint256"
        }
      ],
      "stateMutability": "view",
      "type": "function"
    },
    {
      "inputs": [],
      "name": "closeAt",
      "outputs": [
        {
          "internalType": "uint256",
          "name": "",
          "type": "uint256"
        }
      ],
      "stateMutability": "view",
      "type": "function"
    },
    {
      "inputs": [],
      "name": "goalWei",
      "outputs": [
        {
          "internalType": "uint256",
          "name": "",
          "type": "uint256"
        }
      ],
      "stateMutability": "view",
      "type": "function"
    },
    {
      "inputs": [],
      "name": "isOpen",
      "outputs": [
        {
          "internalType": "bool",
          "name": "",
          "type": "bool"
        }
      ],
      "stateMutability": "view",
      "type": "function"
    },
    {
      "inputs": [],
      "name": "openAt",
      "outputs": [
        {
          "internalType": "uint256",
          "name": "",
          "type": "uint256"
        }
      ],
      "stateMutability": "view",
      "type": "function"
    },
    {
      "inputs": [],
      "name": "owner",
      "outputs": [
        {
          "internalType": "address",
          "name": "",
          "type": "address"
        }
      ],
      "stateMutability": "view",
      "type": "function"
    },
    {
      "inputs": [],
      "name": "paused",
      "outputs": [
        {
          "internalType": "bool",
          "name": "",
          "type": "bool"
        }
      ],
      "stateMutability": "view",
      "type": "function"
    },
    {
      "inputs": [],
      "name": "rate",
      "outputs": [
        {
          "internalType": "uint256",
          "name": "",
          "type": "uint256"
        }
      ],
      "stateMutability": "view",
      "type": "function"
    },
    {
      "inputs": [
        {
          "internalType": "bool",
          "name": "on",
          "type": "bool"
        }
      ],
      "name": "setPaused",
      "outputs": [],
      "stateMutability": "nonpayable",
      "type": "function"
    },
    {
      "inputs": [
        {
          "internalType": "uint256",
          "name": "amount",
          "type": "uint256"
        }
      ],
      "name": "skimTokens",
      "outputs": [],
      "stateMutability": "nonpayable",
      "type": "function"
    },
    {
      "inputs": [],
      "name": "token",
      "outputs": [
        {
          "internalType": "contract IERC20",
          "name": "",
          "type": "address"
        }
      ],
      "stateMutability": "view",
      "type": "function"
    },
    {
      "inputs": [],
      "name": "totalRaisedWei",
      "outputs": [
        {
          "internalType": "uint256",
          "name": "",
          "type": "uint256"
        }
      ],
      "stateMutability": "view",
      "type": "function"
    },
    {
      "inputs": [],
      "name": "wallet",
      "outputs": [
        {
          "internalType": "address",
          "name": "",
          "type": "address"
        }
      ],
      "stateMutability": "view",
      "type": "function"
    },
    {
      "inputs": [],
      "name": "weiRaised",
      "outputs": [
        {
          "internalType": "uint256",
          "name": "",
          "type": "uint256"
        }
      ],
      "stateMutability": "view",
      "type": "function"
    },
    {
      "inputs": [
        {
          "internalType": "uint256",
          "name": "amountWei",
          "type": "uint256"
        }
      ],
      "name": "withdrawETH",
      "outputs": [],
      "stateMutability": "nonpayable",
      "type": "function"
    },
    {
      "stateMutability": "payable",
      "type": "receive"
    }
  ],
  "bytecode": "0x6101806040523480156200001257600080fd5b5060405162001e5c38038062001e5c8339818101604052810190620000389190620002ea565b600073ffffffffffffffffffffffffffffffffffffffff168773ffffffffffffffffffffffffffffffffffffffff1614158015620000a35750600073ffffffffffffffffffffffffffffffffffffffff168673ffffffffffffffffffffffffffffffffffffffff1614155b620000e5576040517f08c379a0000000000000000000000000000000000000000000000000000000008152600401620000dc90620003fe565b60405180910390fd5b8284106200012a576040517f08c379a0000000000000000000000000000000000000000000000000000000008152600401620001219062000470565b60405180910390fd5b6000851162000170576040517f08c379a00000000000000000000000000000000000000000000000000000000081526004016200016790620004e2565b60405180910390fd5b3373ffffffffffffffffffffffffffffffffffffffff166101608173ffffffffffffffffffffffffffffffffffffffff16815250508673ffffffffffffffffffffffffffffffffffffffff1660a08173ffffffffffffffffffffffffffffffffffffffff16815250508573ffffffffffffffffffffffffffffffffffffffff1660808173ffffffffffffffffffffffffffffffffffffffff16815250508460c081815250508361012081815250508261014081815250508160e081815250508061010081815250505050505050505062000504565b600080fd5b600073ffffffffffffffffffffffffffffffffffffffff82169050919050565b600062000277826200024a565b9050919050565b62000289816200026a565b81146200029557600080fd5b50565b600081519050620002a9816200027e565b92915050565b6000819050919050565b620002c481620002af565b8114620002d057600080fd5b50565b600081519050620002e481620002b9565b92915050565b600080600080600080600060e0888a0312156200030c576200030b62000245565b5b60006200031c8a828b0162000298565b97505060206200032f8a828b0162000298565b9650506040620003428a828b01620002d3565b9550506060620003558a828b01620002d3565b9450506080620003688a828b01620002d3565b93505060a06200037b8a828b01620002d3565b92505060c06200038e8a828b01620002d3565b91505092959891949750929550565b600082825260208201905092915050565b7f6261642061646472000000000000000000000000000000000000000000000000600082015250565b6000620003e66008836200039d565b9150620003f382620003ae565b602082019050919050565b600060208201905081810360008301526200041981620003d7565b9050919050565b7f6261642077696e646f7700000000000000000000000000000000000000000000600082015250565b600062000458600a836200039d565b9150620004658262000420565b602082019050919050565b600060208201905081810360008301526200048b8162000449565b9050919050565b7f6261642072617465000000000000000000000000000000000000000000000000600082015250565b6000620004ca6008836200039d565b9150620004d78262000492565b602082019050919050565b60006020820190508181036000830152620004fd81620004bb565b9050919050565b60805160a05160c05160e0516101005161012051610140516101605161187b620005e16000396000818161083201528181610a5101528181610cc50152610d600152600081816103c2015281816109e901528181610adf0152610d18015260008181610397015281816109be0152610ce901526000610d3c01526000818161052501526109920152600081816105a0015261096e01526000818161063401528181610b570152610f2c01526000818161071301528181610a1201528181610b9301528181610c5401528181610df00152610eba015261187b6000f3fe6080604052600436106100f75760003560e01c806378b94c161161008a578063a985408711610059578063a9854087146102eb578063d15f2d6014610316578063f14210a614610341578063fc0c546a1461036a57610107565b806378b94c16146102625780638da5cb5b1461028b578063a0e23ebd146102b6578063a6f2ae3a146102e157610107565b806347535d7b116100c657806347535d7b146101b6578063521eb273146101e15780635c975abb1461020c5780636dfdb9121461023757610107565b806316c38b3c1461010c5780632c4e722e1461013557806332e76741146101605780634042b66f1461018b57610107565b366101075761010533610395565b005b600080fd5b34801561011857600080fd5b50610133600480360381019061012e9190610f8b565b610830565b005b34801561014157600080fd5b5061014a61096c565b6040516101579190610fd1565b60405180910390f35b34801561016c57600080fd5b50610175610990565b6040516101829190610fd1565b60405180910390f35b34801561019757600080fd5b506101a06109b4565b6040516101ad9190610fd1565b60405180910390f35b3480156101c257600080fd5b506101cb6109ba565b6040516101d89190610ffb565b60405180910390f35b3480156101ed57600080fd5b506101f6610a10565b6040516102039190611057565b60405180910390f35b34801561021857600080fd5b50610221610a34565b60405161022e9190610ffb565b60405180910390f35b34801561024357600080fd5b5061024c610a45565b6040516102599190610fd1565b60405180910390f35b34801561026e57600080fd5b506102896004803603810190610284919061109e565b610a4f565b005b34801561029757600080fd5b506102a0610cc3565b6040516102ad9190611057565b60405180910390f35b3480156102c257600080fd5b506102cb610ce7565b6040516102d89190610fd1565b60405180910390f35b6102e9610d0b565b005b3480156102f757600080fd5b50610300610d16565b60405161030d9190610fd1565b60405180910390f35b34801561032257600080fd5b5061032b610d3a565b6040516103389190610fd1565b60405180910390f35b34801561034d57600080fd5b506103686004803603810190610363919061109e565b610d5e565b005b34801561037657600080fd5b5061037f610f2a565b60405161038c919061112a565b60405180910390f35b7f000000000000000000000000000000000000000000000000000000000000000042101580156103e457507f000000000000000000000000000000000000000000000000000000000000000042105b610423576040517f08c379a000000000000000000000000000000000000000000000000000000000815260040161041a906111a2565b60405180910390fd5b60008054906101000a900460ff1615610471576040517f08c379a00000000000000000000000000000000000000000000000000000000081526004016104689061120e565b60405180910390fd5b600073ffffffffffffffffffffffffffffffffffffffff168173ffffffffffffffffffffffffffffffffffffffff16036104e0576040517f08c379a00000000000000000000000000000000000000000000000000000000081526004016104d79061127a565b60405180910390fd5b60003411610523576040517f08c379a000000000000000000000000000000000000000000000000000000000815260040161051a906112e6565b60405180910390fd5b7f0000000000000000000000000000000000000000000000000000000000000000346001546105529190611335565b1115610593576040517f08c379a000000000000000000000000000000000000000000000000000000000815260040161058a906113b5565b60405180910390fd5b6000670de0b6b3a76400007f0000000000000000000000000000000000000000000000000000000000000000346105ca91906113d5565b6105d49190611446565b905060008111610619576040517f08c379a0000000000000000000000000000000000000000000000000000000008152600401610610906114c3565b60405180910390fd5b346001600082825461062b9190611335565b925050819055507f000000000000000000000000000000000000000000000000000000000000000073ffffffffffffffffffffffffffffffffffffffff1663a9059cbb83836040518363ffffffff1660e01b815260040161068d9291906114e3565b6020604051808303816000875af11580156106ac573d6000803e3d6000fd5b505050506040513d601f19601f820116820180604052508101906106d09190611521565b61070f576040517f08c379a00000000000000000000000000000000000000000000000000000000081526004016107069061159a565b60405180910390fd5b60007f000000000000000000000000000000000000000000000000000000000000000073ffffffffffffffffffffffffffffffffffffffff1634604051610755906115eb565b60006040518083038185875af1925050503d8060008114610792576040519150601f19603f3d011682016040523d82523d6000602084013e610797565b606091505b50509050806107db576040517f08c379a00000000000000000000000000000000000000000000000000000000081526004016107d29061164c565b60405180910390fd5b8273ffffffffffffffffffffffffffffffffffffffff167f8fafebcaf9d154343dad25669bfa277f4fbacd7ac6b0c4fed522580e040a0f33348460405161082392919061166c565b60405180910390a2505050565b7f000000000000000000000000000000000000000000000000000000000000000073ffffffffffffffffffffffffffffffffffffffff163373ffffffffffffffffffffffffffffffffffffffff16146108be576040517f08c379a00000000000000000000000000000000000000000000000000000000081526004016108b5906116e1565b60405180910390fd5b806000806101000a81548160ff0219169083151502179055508015610925573373ffffffffffffffffffffffffffffffffffffffff167f62e78cea01bee320cd4e420270b5ea74000d11b0c9f74754ebdbfc544b05a25860405160405180910390a2610969565b3373ffffffffffffffffffffffffffffffffffffffff167f5db9ee0a495bf2e6ff9c91a7834c1ba4fdd244a5e8aa4e537bd38aeae4b073aa60405160405180910390a25b50565b7f000000000000000000000000000000000000000000000000000000000000000081565b7f000000000000000000000000000000000000000000000000000000000000000081565b60015481565b60007f00000000000000000000000000000000000000000000000000000000000000004210158015610a0b57507f000000000000000000000000000000000000000000000000000000000000000042105b905090565b7f000000000000000000000000000000000000000000000000000000000000000081565b60008054906101000a900460ff1681565b6000600154905090565b7f000000000000000000000000000000000000000000000000000000000000000073ffffffffffffffffffffffffffffffffffffffff163373ffffffffffffffffffffffffffffffffffffffff1614610add576040517f08c379a0000000000000000000000000000000000000000000000000000000008152600401610ad4906116e1565b60405180910390fd5b7f000000000000000000000000000000000000000000000000000000000000000042101580610b16575060008054906101000a900460ff165b610b55576040517f08c379a0000000000000000000000000000000000000000000000000000000008152600401610b4c9061174d565b60405180910390fd5b7f000000000000000000000000000000000000000000000000000000000000000073ffffffffffffffffffffffffffffffffffffffff1663a9059cbb7f0000000000000000000000000000000000000000000000000000000000000000836040518363ffffffff1660e01b8152600401610bd09291906114e3565b6020604051808303816000875af1158015610bef573d6000803e3d6000fd5b505050506040513d601f19601f82011682018060405250810190610c139190611521565b610c52576040517f08c379a0000000000000000000000000000000000000000000000000000000008152600401610c49906117b9565b60405180910390fd5b7f000000000000000000000000000000000000000000000000000000000000000073ffffffffffffffffffffffffffffffffffffffff167fb0477b3d4d588e76d76df1c6cf069311c9dc4f742f19d0f74a70f58803d0768f82604051610cb89190610fd1565b60405180910390a250565b7f000000000000000000000000000000000000000000000000000000000000000081565b7f000000000000000000000000000000000000000000000000000000000000000081565b610d1433610395565b565b7f000000000000000000000000000000000000000000000000000000000000000081565b7f000000000000000000000000000000000000000000000000000000000000000081565b7f000000000000000000000000000000000000000000000000000000000000000073ffffffffffffffffffffffffffffffffffffffff163373ffffffffffffffffffffffffffffffffffffffff1614610dec576040517f08c379a0000000000000000000000000000000000000000000000000000000008152600401610de3906116e1565b60405180910390fd5b60007f000000000000000000000000000000000000000000000000000000000000000073ffffffffffffffffffffffffffffffffffffffff1682604051610e32906115eb565b60006040518083038185875af1925050503d8060008114610e6f576040519150601f19603f3d011682016040523d82523d6000602084013e610e74565b606091505b5050905080610eb8576040517f08c379a0000000000000000000000000000000000000000000000000000000008152600401610eaf90611825565b60405180910390fd5b7f000000000000000000000000000000000000000000000000000000000000000073ffffffffffffffffffffffffffffffffffffffff167f7084f5476618d8e60b11ef0d7d3f06914655adb8793e28ff7f018d4c76d505d583604051610f1e9190610fd1565b60405180910390a25050565b7f000000000000000000000000000000000000000000000000000000000000000081565b600080fd5b60008115159050919050565b610f6881610f53565b8114610f7357600080fd5b50565b600081359050610f8581610f5f565b92915050565b600060208284031215610fa157610fa0610f4e565b5b6000610faf84828501610f76565b91505092915050565b6000819050919050565b610fcb81610fb8565b82525050565b6000602082019050610fe66000830184610fc2565b92915050565b610ff581610f53565b82525050565b60006020820190506110106000830184610fec565b92915050565b600073ffffffffffffffffffffffffffffffffffffffff82169050919050565b600061104182611016565b9050919050565b61105181611036565b82525050565b600060208201905061106c6000830184611048565b92915050565b61107b81610fb8565b811461108657600080fd5b50565b60008135905061109881611072565b92915050565b6000602082840312156110b4576110b3610f4e565b5b60006110c284828501611089565b91505092915050565b6000819050919050565b60006110f06110eb6110e684611016565b6110cb565b611016565b9050919050565b6000611102826110d5565b9050919050565b6000611114826110f7565b9050919050565b61112481611109565b82525050565b600060208201905061113f600083018461111b565b92915050565b600082825260208201905092915050565b7f6e6f74206f70656e000000000000000000000000000000000000000000000000600082015250565b600061118c600883611145565b915061119782611156565b602082019050919050565b600060208201905081810360008301526111bb8161117f565b9050919050565b7f7061757365640000000000000000000000000000000000000000000000000000600082015250565b60006111f8600683611145565b9150611203826111c2565b602082019050919050565b60006020820190508181036000830152611227816111eb565b9050919050565b7f6261640000000000000000000000000000000000000000000000000000000000600082015250565b6000611264600383611145565b915061126f8261122e565b602082019050919050565b6000602082019050818103600083015261129381611257565b9050919050565b7f6e6f206574680000000000000000000000000000000000000000000000000000600082015250565b60006112d0600683611145565b91506112db8261129a565b602082019050919050565b600060208201905081810360008301526112ff816112c3565b9050919050565b7f4e487b7100000000000000000000000000000000000000000000000000000000600052601160045260246000fd5b600061134082610fb8565b915061134b83610fb8565b925082820190508082111561136357611362611306565b5b92915050565b7f6361700000000000000000000000000000000000000000000000000000000000600082015250565b600061139f600383611145565b91506113aa82611369565b602082019050919050565b600060208201905081810360008301526113ce81611392565b9050919050565b60006113e082610fb8565b91506113eb83610fb8565b92508282026113f981610fb8565b915082820484148315176114105761140f611306565b5b5092915050565b7f4e487b7100000000000000000000000000000000000000000000000000000000600052601260045260246000fd5b600061145182610fb8565b915061145c83610fb8565b92508261146c5761146b611417565b5b828204905092915050565b7f746f6f20736d616c6c0000000000000000000000000000000000000000000000600082015250565b60006114ad600983611145565b91506114b882611477565b602082019050919050565b600060208201905081810360008301526114dc816114a0565b9050919050565b60006040820190506114f86000830185611048565b6115056020830184610fc2565b9392505050565b60008151905061151b81610f5f565b92915050565b60006020828403121561153757611536610f4e565b5b60006115458482850161150c565b91505092915050565b7f746f6b656e2078666572206661696c6564000000000000000000000000000000600082015250565b6000611584601183611145565b915061158f8261154e565b602082019050919050565b600060208201905081810360008301526115b381611577565b9050919050565b600081905092915050565b50565b60006115d56000836115ba565b91506115e0826115c5565b600082019050919050565b60006115f6826115c8565b9150819050919050565b7f6574682078666572206661696c65640000000000000000000000000000000000600082015250565b6000611636600f83611145565b915061164182611600565b602082019050919050565b6000602082019050818103600083015261166581611629565b9050919050565b60006040820190506116816000830185610fc2565b61168e6020830184610fc2565b9392505050565b7f6e6f74206f776e65720000000000000000000000000000000000000000000000600082015250565b60006116cb600983611145565b91506116d682611695565b602082019050919050565b600060208201905081810360008301526116fa816116be565b9050919050565b7f6e6f7420656e6465640000000000000000000000000000000000000000000000600082015250565b6000611737600983611145565b915061174282611701565b602082019050919050565b600060208201905081810360008301526117668161172a565b9050919050565b7f736b696d206661696c0000000000000000000000000000000000000000000000600082015250565b60006117a3600983611145565b91506117ae8261176d565b602082019050919050565b600060208201905081810360008301526117d281611796565b9050919050565b7f7769746864726177206661696c00000000000000000000000000000000000000600082015250565b600061180f600d83611145565b915061181a826117d9565b602082019050919050565b6000602082019050818103600083015261183e81611802565b905091905056fea2646970667358221220dd6dd2c03e3e6b9a073a2290a60022829af663143d106aa48743028aae1b335f64736f6c63430008180033",
  "linkReferences": {},
  "deployedLinkReferences": {}
}